{
  "_format": "hh-sol-artifact-1",
  "contractName": "DeadSwitchVault",
  "sourceName": "contracts/DeadSwitchVault.sol",
  "abi": [
    {
      "inputs": [
        {
          "internalType": "address",
          "name": "_usdc",
          "type": "address"
        }
      ],
      "stateMutability": "nonpayable",
      "type": "constructor"
    },
    {
      "anonymous": false,
      "inputs": [
        {
          "indexed": true,
          "internalType": "uint256",
          "name": "id",
          "type": "uint256"
        },
        {
          "indexed": true,
          "internalType": "address",
          "name": "owner",
          "type": "address"
        }
      ],
      "name": "Cancelled",
      "type": "event"
    },
    {
      "anonymous": false,
      "inputs": [
        {
          "indexed": true,
          "internalType": "uint256",
          "name": "id",
          "type": "uint256"
        },
        {
          "indexed": true,
          "internalType": "address",
          "name": "owner",
          "type": "address"
        },
        {
          "indexed": false,
          "internalType": "uint256",
          "name": "newDeadline",
          "type": "uint256"
        }
      ],
      "name": "CheckIn",
      "type": "event"
    },
    {
      "anonymous": false,
      "inputs": [
        {
          "indexed": true,
          "internalType": "uint256",
          "name": "id",
          "type": "uint256"
        },
        {
          "indexed": true,
          "internalType": "address",
          "name": "backup",
          "type": "address"
        },
        {
          "indexed": false,
          "internalType": "uint256",
          "name": "amount",
          "type": "uint256"
        }
      ],
      "name": "Executed",
      "type": "event"
    },
    {
      "anonymous": false,
      "inputs": [
        {
          "indexed": true,
          "internalType": "uint256",
          "name": "id",
          "type": "uint256"
        },
        {
          "indexed": true,
          "internalType": "address",
          "name": "owner",
          "type": "address"
        },
        {
          "indexed": true,
          "internalType": "address",
          "name": "backup",
          "type": "address"
        },
        {
          "indexed": false,
          "internalType": "uint256",
          "name": "amount",
          "type": "uint256"
        },
        {
          "indexed": false,
          "internalType": "uint256",
          "name": "deadline",
          "type": "uint256"
        }
      ],
      "name": "SwitchCreated",
      "type": "event"
    },
    {
      "inputs": [
        {
          "internalType": "uint256",
          "name": "id",
          "type": "uint256"
        }
      ],
      "name": "cancel",
      "outputs": [],
      "stateMutability": "nonpayable",
      "type": "function"
    },
    {
      "inputs": [
        {
          "internalType": "uint256",
          "name": "id",
          "type": "uint256"
        },
        {
          "internalType": "uint256",
          "name": "_days",
          "type": "uint256"
        }
      ],
      "name": "checkIn",
      "outputs": [],
      "stateMutability": "nonpayable",
      "type": "function"
    },
    {
      "inputs": [
        {
          "internalType": "bytes",
          "name": "",
          "type": "bytes"
        }
      ],
      "name": "checkUpkeep",
      "outputs": [
        {
          "internalType": "bool",
          "name": "upkeepNeeded",
          "type": "bool"
        },
        {
          "internalType": "bytes",
          "name": "performData",
          "type": "bytes"
        }
      ],
      "stateMutability": "view",
      "type": "function"
    },
    {
      "inputs": [
        {
          "internalType": "address",
          "name": "_backup",
          "type": "address"
        },
        {
          "internalType": "uint256",
          "name": "_amount",
          "type": "uint256"
        },
        {
          "internalType": "uint256",
          "name": "_days",
          "type": "uint256"
        }
      ],
      "name": "createSwitch",
      "outputs": [
        {
          "internalType": "uint256",
          "name": "",
          "type": "uint256"
        }
      ],
      "stateMutability": "nonpayable",
      "type": "function"
    },
    {
      "inputs": [
        {
          "internalType": "uint256",
          "name": "id",
          "type": "uint256"
        }
      ],
      "name": "execute",
      "outputs": [],
      "stateMutability": "nonpayable",
      "type": "function"
    },
    {
      "inputs": [
        {
          "internalType": "uint256",
          "name": "id",
          "type": "uint256"
        }
      ],
      "name": "getSwitch",
      "outputs": [
        {
          "internalType": "address",
          "name": "owner",
          "type": "address"
        },
        {
          "internalType": "address",
          "name": "backup",
          "type": "address"
        },
        {
          "internalType": "uint256",
          "name": "amount",
          "type": "uint256"
        },
        {
          "internalType": "uint256",
          "name": "deadline",
          "type": "uint256"
        },
        {
          "internalType": "bool",
          "name": "executed",
          "type": "bool"
        },
        {
          "internalType": "bool",
          "name": "cancelled",
          "type": "bool"
        }
      ],
      "stateMutability": "view",
      "type": "function"
    },
    {
      "inputs": [
        {
          "internalType": "bytes",
          "name": "performData",
          "type": "bytes"
        }
      ],
      "name": "performUpkeep",
      "outputs": [],
      "stateMutability": "nonpayable",
      "type": "function"
    },
    {
      "inputs": [],
      "name": "switchCount",
      "outputs": [
        {
          "internalType": "uint256",
          "name": "",
          "type": "uint256"
        }
      ],
      "stateMutability": "view",
      "type": "function"
    },
    {
      "inputs": [
        {
          "internalType": "uint256",
          "name": "",
          "type": "uint256"
        }
      ],
      "name": "switches",
      "outputs": [
        {
          "internalType": "address",
          "name": "owner",
          "type": "address"
        },
        {
          "internalType": "address",
          "name": "backup",
          "type": "address"
        },
        {
          "internalType": "uint256",
          "name": "amount",
          "type": "uint256"
        },
        {
          "internalType": "uint256",
          "name": "deadline",
          "type": "uint256"
        },
        {
          "internalType": "bool",
          "name": "executed",
          "type": "bool"
        },
        {
          "internalType": "bool",
          "name": "cancelled",
          "type": "bool"
        }
      ],
      "stateMutability": "view",
      "type": "function"
    },
    {
      "inputs": [
        {
          "internalType": "uint256",
          "name": "id",
          "type": "uint256"
        }
      ],
      "name": "timeRemaining",
      "outputs": [
        {
          "internalType": "uint256",
          "name": "",
          "type": "uint256"
        }
      ],
      "stateMutability": "view",
      "type": "function"
    },
    {
      "inputs": [],
      "name": "usdc",
      "outputs": [
        {
          "internalType": "contract IERC20",
          "name": "",
          "type": "address"
        }
      ],
      "stateMutability": "view",
      "type": "function"
    }
  ],
  "bytecode": "0x60806040523480156200001157600080fd5b5060405162001aa338038062001aa38339818101604052810190620000379190620000e8565b806000806101000a81548173ffffffffffffffffffffffffffffffffffffffff021916908373ffffffffffffffffffffffffffffffffffffffff160217905550506200011a565b600080fd5b600073ffffffffffffffffffffffffffffffffffffffff82169050919050565b6000620000b08262000083565b9050919050565b620000c281620000a3565b8114620000ce57600080fd5b50565b600081519050620000e281620000b7565b92915050565b6000602082840312156200010157620001006200007e565b5b60006200011184828501620000d1565b91505092915050565b611979806200012a6000396000f3fe608060405234801561001057600080fd5b50600436106100a95760003560e01c80637702b1eb116100715780637702b1eb14610165578063825f127614610183578063881ec10b146101b8578063ea3d9020146101ed578063f516f88e1461021d578063fe0d94c114610239576100a9565b80633e413bee146100ae57806340e58ee5146100cc5780634585e33b146100e8578063484bf45c146101045780636e04ff0d14610134575b600080fd5b6100b6610255565b6040516100c3919061104f565b60405180910390f35b6100e660048036038101906100e191906110aa565b610279565b005b61010260048036038101906100fd919061113c565b610516565b005b61011e600480360381019061011991906111c7565b6105cc565b60405161012b9190611229565b60405180910390f35b61014e6004803603810190610149919061113c565b610926565b60405161015c9291906112ef565b60405180910390f35b61016d6109f4565b60405161017a9190611229565b60405180910390f35b61019d600480360381019061019891906110aa565b6109fa565b6040516101af9695949392919061132e565b60405180910390f35b6101d260048036038101906101cd91906110aa565b610aa8565b6040516101e49695949392919061132e565b60405180910390f35b610207600480360381019061020291906110aa565b610b3e565b6040516102149190611229565b60405180910390f35b6102376004803603810190610232919061138f565b610b84565b005b610253600480360381019061024e91906110aa565b610d6f565b005b60008054906101000a900473ffffffffffffffffffffffffffffffffffffffff1681565b60006002600083815260200190815260200160002090508060000160009054906101000a900473ffffffffffffffffffffffffffffffffffffffff1673ffffffffffffffffffffffffffffffffffffffff163373ffffffffffffffffffffffffffffffffffffffff1614610322576040517f08c379a00000000000000000000000000000000000000000000000000000000081526004016103199061142c565b60405180910390fd5b8060040160009054906101000a900460ff1615610374576040517f08c379a000000000000000000000000000000000000000000000000000000000815260040161036b90611498565b60405180910390fd5b8060040160019054906101000a900460ff16156103c6576040517f08c379a00000000000000000000000000000000000000000000000000000000081526004016103bd90611504565b60405180910390fd5b60018160040160016101000a81548160ff02191690831515021790555060008054906101000a900473ffffffffffffffffffffffffffffffffffffffff1673ffffffffffffffffffffffffffffffffffffffff1663a9059cbb8260000160009054906101000a900473ffffffffffffffffffffffffffffffffffffffff1683600201546040518363ffffffff1660e01b8152600401610466929190611524565b6020604051808303816000875af1158015610485573d6000803e3d6000fd5b505050506040513d601f19601f820116820180604052508101906104a99190611579565b508060000160009054906101000a900473ffffffffffffffffffffffffffffffffffffffff1673ffffffffffffffffffffffffffffffffffffffff16827f26deca31ff8139a06c52453ce8985d34f7648a6d9af1d283c4063d052c355a0f60405160405180910390a35050565b6000828281019061052791906110aa565b905060006002600083815260200190815260200160002090508060040160009054906101000a900460ff1615801561056e57508060040160019054906101000a900460ff16155b801561057e575080600301544210155b6105bd576040517f08c379a00000000000000000000000000000000000000000000000000000000081526004016105b4906115f2565b60405180910390fd5b6105c682610d6f565b50505050565b60008073ffffffffffffffffffffffffffffffffffffffff168473ffffffffffffffffffffffffffffffffffffffff160361063c576040517f08c379a00000000000000000000000000000000000000000000000000000000081526004016106339061165e565b60405180910390fd5b6000831161067f576040517f08c379a0000000000000000000000000000000000000000000000000000000008152600401610676906116ca565b60405180910390fd5b60008054906101000a900473ffffffffffffffffffffffffffffffffffffffff1673ffffffffffffffffffffffffffffffffffffffff166323b872dd3330866040518463ffffffff1660e01b81526004016106dc939291906116ea565b6020604051808303816000875af11580156106fb573d6000803e3d6000fd5b505050506040513d601f19601f8201168201806040525081019061071f9190611579565b506001600081548092919061073390611750565b9190505550600062015180836107499190611798565b4261075491906117da565b90506040518060c001604052803373ffffffffffffffffffffffffffffffffffffffff1681526020018673ffffffffffffffffffffffffffffffffffffffff1681526020018581526020018281526020016000151581526020016000151581525060026000600154815260200190815260200160002060008201518160000160006101000a81548173ffffffffffffffffffffffffffffffffffffffff021916908373ffffffffffffffffffffffffffffffffffffffff16021790555060208201518160010160006101000a81548173ffffffffffffffffffffffffffffffffffffffff021916908373ffffffffffffffffffffffffffffffffffffffff160217905550604082015181600201556060820151816003015560808201518160040160006101000a81548160ff02191690831515021790555060a08201518160040160016101000a81548160ff0219169083151502179055509050508473ffffffffffffffffffffffffffffffffffffffff163373ffffffffffffffffffffffffffffffffffffffff166001547f9a663fabe00ae5988f58f3fcb0b4585601099a88f34ca1f3a6d31d3d1ce21403878560405161091192919061180e565b60405180910390a46001549150509392505050565b600060606000600190505b60015481116109d55760006002600083815260200190815260200160002090508060040160009054906101000a900460ff1615801561097f57508060040160019054906101000a900460ff16155b801561098f575080600301544210155b156109c1576001826040516020016109a79190611229565b6040516020818303038152906040529350935050506109ed565b5080806109cd90611750565b915050610931565b50600060405180602001604052806000815250915091505b9250929050565b60015481565b60008060008060008060006002600089815260200190815260200160002090508060000160009054906101000a900473ffffffffffffffffffffffffffffffffffffffff168160010160009054906101000a900473ffffffffffffffffffffffffffffffffffffffff16826002015483600301548460040160009054906101000a900460ff168560040160019054906101000a900460ff169650965096509650965096505091939550919395565b60026020528060005260406000206000915090508060000160009054906101000a900473ffffffffffffffffffffffffffffffffffffffff16908060010160009054906101000a900473ffffffffffffffffffffffffffffffffffffffff16908060020154908060030154908060040160009054906101000a900460ff16908060040160019054906101000a900460ff16905086565b60008060026000848152602001908152602001600020905080600301544210610b6b576000915050610b7f565b428160030154610b7b9190611837565b9150505b919050565b60006002600084815260200190815260200160002090508060000160009054906101000a900473ffffffffffffffffffffffffffffffffffffffff1673ffffffffffffffffffffffffffffffffffffffff163373ffffffffffffffffffffffffffffffffffffffff1614610c2d576040517f08c379a0000000000000000000000000000000000000000000000000000000008152600401610c249061142c565b60405180910390fd5b8060040160009054906101000a900460ff1615610c7f576040517f08c379a0000000000000000000000000000000000000000000000000000000008152600401610c7690611498565b60405180910390fd5b8060040160019054906101000a900460ff1615610cd1576040517f08c379a0000000000000000000000000000000000000000000000000000000008152600401610cc8906118b7565b60405180910390fd5b6201518082610ce09190611798565b42610ceb91906117da565b81600301819055508060000160009054906101000a900473ffffffffffffffffffffffffffffffffffffffff1673ffffffffffffffffffffffffffffffffffffffff16837f3fd56a141c7bca393ccfa4d04d45222f3f329deeb0cb7ac2103dc475db7b6f198360030154604051610d629190611229565b60405180910390a3505050565b60006002600083815260200190815260200160002090508060040160009054906101000a900460ff1615610dd8576040517f08c379a0000000000000000000000000000000000000000000000000000000008152600401610dcf90611498565b60405180910390fd5b8060040160019054906101000a900460ff1615610e2a576040517f08c379a0000000000000000000000000000000000000000000000000000000008152600401610e21906118b7565b60405180910390fd5b8060030154421015610e71576040517f08c379a0000000000000000000000000000000000000000000000000000000008152600401610e6890611923565b60405180910390fd5b60018160040160006101000a81548160ff02191690831515021790555060008054906101000a900473ffffffffffffffffffffffffffffffffffffffff1673ffffffffffffffffffffffffffffffffffffffff1663a9059cbb8260010160009054906101000a900473ffffffffffffffffffffffffffffffffffffffff1683600201546040518363ffffffff1660e01b8152600401610f11929190611524565b6020604051808303816000875af1158015610f30573d6000803e3d6000fd5b505050506040513d601f19601f82011682018060405250810190610f549190611579565b508060010160009054906101000a900473ffffffffffffffffffffffffffffffffffffffff1673ffffffffffffffffffffffffffffffffffffffff16827f12c8907d32b752d626a36cf18f31719e25f1a3b6f750ee948c22c036373d48aa8360020154604051610fc49190611229565b60405180910390a35050565b600073ffffffffffffffffffffffffffffffffffffffff82169050919050565b6000819050919050565b600061101561101061100b84610fd0565b610ff0565b610fd0565b9050919050565b600061102782610ffa565b9050919050565b60006110398261101c565b9050919050565b6110498161102e565b82525050565b60006020820190506110646000830184611040565b92915050565b600080fd5b600080fd5b6000819050919050565b61108781611074565b811461109257600080fd5b50565b6000813590506110a48161107e565b92915050565b6000602082840312156110c0576110bf61106a565b5b60006110ce84828501611095565b91505092915050565b600080fd5b600080fd5b600080fd5b60008083601f8401126110fc576110fb6110d7565b5b8235905067ffffffffffffffff811115611119576111186110dc565b5b602083019150836001820283011115611135576111346110e1565b5b9250929050565b600080602083850312156111535761115261106a565b5b600083013567ffffffffffffffff8111156111715761117061106f565b5b61117d858286016110e6565b92509250509250929050565b600061119482610fd0565b9050919050565b6111a481611189565b81146111af57600080fd5b50565b6000813590506111c18161119b565b92915050565b6000806000606084860312156111e0576111df61106a565b5b60006111ee868287016111b2565b93505060206111ff86828701611095565b925050604061121086828701611095565b9150509250925092565b61122381611074565b82525050565b600060208201905061123e600083018461121a565b92915050565b60008115159050919050565b61125981611244565b82525050565b600081519050919050565b600082825260208201905092915050565b60005b8381101561129957808201518184015260208101905061127e565b60008484015250505050565b6000601f19601f8301169050919050565b60006112c18261125f565b6112cb818561126a565b93506112db81856020860161127b565b6112e4816112a5565b840191505092915050565b60006040820190506113046000830185611250565b818103602083015261131681846112b6565b90509392505050565b61132881611189565b82525050565b600060c082019050611343600083018961131f565b611350602083018861131f565b61135d604083018761121a565b61136a606083018661121a565b6113776080830185611250565b61138460a0830184611250565b979650505050505050565b600080604083850312156113a6576113a561106a565b5b60006113b485828601611095565b92505060206113c585828601611095565b9150509250929050565b600082825260208201905092915050565b7f4e6f74206f776e65720000000000000000000000000000000000000000000000600082015250565b60006114166009836113cf565b9150611421826113e0565b602082019050919050565b6000602082019050818103600083015261144581611409565b9050919050565b7f416c726561647920657865637574656400000000000000000000000000000000600082015250565b60006114826010836113cf565b915061148d8261144c565b602082019050919050565b600060208201905081810360008301526114b181611475565b9050919050565b7f416c72656164792063616e63656c6c6564000000000000000000000000000000600082015250565b60006114ee6011836113cf565b91506114f9826114b8565b602082019050919050565b6000602082019050818103600083015261151d816114e1565b9050919050565b6000604082019050611539600083018561131f565b611546602083018461121a565b9392505050565b61155681611244565b811461156157600080fd5b50565b6000815190506115738161154d565b92915050565b60006020828403121561158f5761158e61106a565b5b600061159d84828501611564565b91505092915050565b7f4e6f742072656164790000000000000000000000000000000000000000000000600082015250565b60006115dc6009836113cf565b91506115e7826115a6565b602082019050919050565b6000602082019050818103600083015261160b816115cf565b9050919050565b7f496e76616c6964206261636b7570000000000000000000000000000000000000600082015250565b6000611648600e836113cf565b915061165382611612565b602082019050919050565b600060208201905081810360008301526116778161163b565b9050919050565b7f416d6f756e74206d7573742062652067726561746572207468616e2030000000600082015250565b60006116b4601d836113cf565b91506116bf8261167e565b602082019050919050565b600060208201905081810360008301526116e3816116a7565b9050919050565b60006060820190506116ff600083018661131f565b61170c602083018561131f565b611719604083018461121a565b949350505050565b7f4e487b7100000000000000000000000000000000000000000000000000000000600052601160045260246000fd5b600061175b82611074565b91507fffffffffffffffffffffffffffffffffffffffffffffffffffffffffffffffff820361178d5761178c611721565b5b600182019050919050565b60006117a382611074565b91506117ae83611074565b92508282026117bc81611074565b915082820484148315176117d3576117d2611721565b5b5092915050565b60006117e582611074565b91506117f083611074565b925082820190508082111561180857611807611721565b5b92915050565b6000604082019050611823600083018561121a565b611830602083018461121a565b9392505050565b600061184282611074565b915061184d83611074565b925082820390508181111561186557611864611721565b5b92915050565b7f43616e63656c6c65640000000000000000000000000000000000000000000000600082015250565b60006118a16009836113cf565b91506118ac8261186b565b602082019050919050565b600060208201905081810360008301526118d081611894565b9050919050565b7f546f6f206561726c790000000000000000000000000000000000000000000000600082015250565b600061190d6009836113cf565b9150611918826118d7565b602082019050919050565b6000602082019050818103600083015261193c81611900565b905091905056fea2646970667358221220828ac7d7a91563d53bdfc51111951943eaaaaf42c75642dd1db6bc387918766864736f6c63430008130033",
  "linkReferences": {},
  "deployedLinkReferences": {}
}