{
  "_format": "hh-sol-artifact-1",
  "contractName": "DeadSwitchVault",
  "sourceName": "contracts/DeadSwitchVault.sol",
  "abi": [
    {
      "inputs": [
        {
          "internalType": "address",
          "name": "_usdc",
          "type": "address"
        },
        {
          "internalType": "address",
          "name": "_platformWallet",
          "type": "address"
        }
      ],
      "stateMutability": "nonpayable",
      "type": "constructor"
    },
    {
      "anonymous": false,
      "inputs": [
        {
          "indexed": true,
          "internalType": "uint256",
          "name": "id",
          "type": "uint256"
        },
        {
          "indexed": true,
          "internalType": "address",
          "name": "owner",
          "type": "address"
        }
      ],
      "name": "Cancelled",
      "type": "event"
    },
    {
      "anonymous": false,
      "inputs": [
        {
          "indexed": true,
          "internalType": "uint256",
          "name": "id",
          "type": "uint256"
        },
        {
          "indexed": true,
          "internalType": "address",
          "name": "owner",
          "type": "address"
        },
        {
          "indexed": false,
          "internalType": "uint256",
          "name": "newDeadline",
          "type": "uint256"
        }
      ],
      "name": "CheckIn",
      "type": "event"
    },
    {
      "anonymous": false,
      "inputs": [
        {
          "indexed": true,
          "internalType": "uint256",
          "name": "id",
          "type": "uint256"
        },
        {
          "indexed": true,
          "internalType": "address",
          "name": "backup",
          "type": "address"
        },
        {
          "indexed": false,
          "internalType": "uint256",
          "name": "amount",
          "type": "uint256"
        }
      ],
      "name": "Executed",
      "type": "event"
    },
    {
      "anonymous": false,
      "inputs": [
        {
          "indexed": true,
          "internalType": "address",
          "name": "user",
          "type": "address"
        },
        {
          "indexed": false,
          "internalType": "enum DeadSwitchVault.Tier",
          "name": "tier",
          "type": "uint8"
        },
        {
          "indexed": false,
          "internalType": "uint256",
          "name": "expiresAt",
          "type": "uint256"
        }
      ],
      "name": "Subscribed",
      "type": "event"
    },
    {
      "anonymous": false,
      "inputs": [
        {
          "indexed": true,
          "internalType": "uint256",
          "name": "id",
          "type": "uint256"
        },
        {
          "indexed": true,
          "internalType": "address",
          "name": "owner",
          "type": "address"
        },
        {
          "indexed": true,
          "internalType": "address",
          "name": "backup",
          "type": "address"
        },
        {
          "indexed": false,
          "internalType": "uint256",
          "name": "amount",
          "type": "uint256"
        },
        {
          "indexed": false,
          "internalType": "uint256",
          "name": "deadline",
          "type": "uint256"
        }
      ],
      "name": "SwitchCreated",
      "type": "event"
    },
    {
      "inputs": [],
      "name": "FREE_MAX_SWITCHES",
      "outputs": [
        {
          "internalType": "uint256",
          "name": "",
          "type": "uint256"
        }
      ],
      "stateMutability": "view",
      "type": "function"
    },
    {
      "inputs": [],
      "name": "FREE_MAX_TIMER",
      "outputs": [
        {
          "internalType": "uint256",
          "name": "",
          "type": "uint256"
        }
      ],
      "stateMutability": "view",
      "type": "function"
    },
    {
      "inputs": [],
      "name": "MONTHLY_DURATION",
      "outputs": [
        {
          "internalType": "uint256",
          "name": "",
          "type": "uint256"
        }
      ],
      "stateMutability": "view",
      "type": "function"
    },
    {
      "inputs": [],
      "name": "MONTHLY_MAX_SWITCHES",
      "outputs": [
        {
          "internalType": "uint256",
          "name": "",
          "type": "uint256"
        }
      ],
      "stateMutability": "view",
      "type": "function"
    },
    {
      "inputs": [],
      "name": "MONTHLY_MAX_TIMER",
      "outputs": [
        {
          "internalType": "uint256",
          "name": "",
          "type": "uint256"
        }
      ],
      "stateMutability": "view",
      "type": "function"
    },
    {
      "inputs": [],
      "name": "MONTHLY_PRICE",
      "outputs": [
        {
          "internalType": "uint256",
          "name": "",
          "type": "uint256"
        }
      ],
      "stateMutability": "view",
      "type": "function"
    },
    {
      "inputs": [],
      "name": "SIXMONTH_DURATION",
      "outputs": [
        {
          "internalType": "uint256",
          "name": "",
          "type": "uint256"
        }
      ],
      "stateMutability": "view",
      "type": "function"
    },
    {
      "inputs": [],
      "name": "SIXMONTH_MAX_SWITCHES",
      "outputs": [
        {
          "internalType": "uint256",
          "name": "",
          "type": "uint256"
        }
      ],
      "stateMutability": "view",
      "type": "function"
    },
    {
      "inputs": [],
      "name": "SIXMONTH_MAX_TIMER",
      "outputs": [
        {
          "internalType": "uint256",
          "name": "",
          "type": "uint256"
        }
      ],
      "stateMutability": "view",
      "type": "function"
    },
    {
      "inputs": [],
      "name": "SIXMONTH_PRICE",
      "outputs": [
        {
          "internalType": "uint256",
          "name": "",
          "type": "uint256"
        }
      ],
      "stateMutability": "view",
      "type": "function"
    },
    {
      "inputs": [],
      "name": "YEARLY_DURATION",
      "outputs": [
        {
          "internalType": "uint256",
          "name": "",
          "type": "uint256"
        }
      ],
      "stateMutability": "view",
      "type": "function"
    },
    {
      "inputs": [],
      "name": "YEARLY_MAX_TIMER",
      "outputs": [
        {
          "internalType": "uint256",
          "name": "",
          "type": "uint256"
        }
      ],
      "stateMutability": "view",
      "type": "function"
    },
    {
      "inputs": [],
      "name": "YEARLY_PRICE",
      "outputs": [
        {
          "internalType": "uint256",
          "name": "",
          "type": "uint256"
        }
      ],
      "stateMutability": "view",
      "type": "function"
    },
    {
      "inputs": [
        {
          "internalType": "address",
          "name": "",
          "type": "address"
        }
      ],
      "name": "activeSwitchCount",
      "outputs": [
        {
          "internalType": "uint256",
          "name": "",
          "type": "uint256"
        }
      ],
      "stateMutability": "view",
      "type": "function"
    },
    {
      "inputs": [
        {
          "internalType": "uint256",
          "name": "id",
          "type": "uint256"
        }
      ],
      "name": "cancel",
      "outputs": [],
      "stateMutability": "nonpayable",
      "type": "function"
    },
    {
      "inputs": [
        {
          "internalType": "uint256",
          "name": "id",
          "type": "uint256"
        },
        {
          "internalType": "uint256",
          "name": "_durationSeconds",
          "type": "uint256"
        }
      ],
      "name": "checkIn",
      "outputs": [],
      "stateMutability": "nonpayable",
      "type": "function"
    },
    {
      "inputs": [
        {
          "internalType": "bytes",
          "name": "",
          "type": "bytes"
        }
      ],
      "name": "checkUpkeep",
      "outputs": [
        {
          "internalType": "bool",
          "name": "upkeepNeeded",
          "type": "bool"
        },
        {
          "internalType": "bytes",
          "name": "performData",
          "type": "bytes"
        }
      ],
      "stateMutability": "view",
      "type": "function"
    },
    {
      "inputs": [
        {
          "internalType": "address",
          "name": "_backup",
          "type": "address"
        },
        {
          "internalType": "uint256",
          "name": "_amount",
          "type": "uint256"
        },
        {
          "internalType": "uint256",
          "name": "_durationSeconds",
          "type": "uint256"
        }
      ],
      "name": "createSwitch",
      "outputs": [
        {
          "internalType": "uint256",
          "name": "",
          "type": "uint256"
        }
      ],
      "stateMutability": "nonpayable",
      "type": "function"
    },
    {
      "inputs": [
        {
          "internalType": "uint256",
          "name": "id",
          "type": "uint256"
        }
      ],
      "name": "execute",
      "outputs": [],
      "stateMutability": "nonpayable",
      "type": "function"
    },
    {
      "inputs": [
        {
          "internalType": "address",
          "name": "user",
          "type": "address"
        }
      ],
      "name": "getMaxSwitches",
      "outputs": [
        {
          "internalType": "uint256",
          "name": "",
          "type": "uint256"
        }
      ],
      "stateMutability": "view",
      "type": "function"
    },
    {
      "inputs": [
        {
          "internalType": "address",
          "name": "user",
          "type": "address"
        }
      ],
      "name": "getMaxTimer",
      "outputs": [
        {
          "internalType": "uint256",
          "name": "",
          "type": "uint256"
        }
      ],
      "stateMutability": "view",
      "type": "function"
    },
    {
      "inputs": [
        {
          "internalType": "address",
          "name": "user",
          "type": "address"
        }
      ],
      "name": "getSubscription",
      "outputs": [
        {
          "internalType": "enum DeadSwitchVault.Tier",
          "name": "tier",
          "type": "uint8"
        },
        {
          "internalType": "uint256",
          "name": "expiresAt",
          "type": "uint256"
        },
        {
          "internalType": "uint256",
          "name": "maxSwitches",
          "type": "uint256"
        },
        {
          "internalType": "uint256",
          "name": "maxTimer",
          "type": "uint256"
        }
      ],
      "stateMutability": "view",
      "type": "function"
    },
    {
      "inputs": [
        {
          "internalType": "uint256",
          "name": "id",
          "type": "uint256"
        }
      ],
      "name": "getSwitch",
      "outputs": [
        {
          "internalType": "address",
          "name": "owner",
          "type": "address"
        },
        {
          "internalType": "address",
          "name": "backup",
          "type": "address"
        },
        {
          "internalType": "uint256",
          "name": "amount",
          "type": "uint256"
        },
        {
          "internalType": "uint256",
          "name": "deadline",
          "type": "uint256"
        },
        {
          "internalType": "bool",
          "name": "executed",
          "type": "bool"
        },
        {
          "internalType": "bool",
          "name": "cancelled",
          "type": "bool"
        }
      ],
      "stateMutability": "view",
      "type": "function"
    },
    {
      "inputs": [
        {
          "internalType": "address",
          "name": "user",
          "type": "address"
        }
      ],
      "name": "getTier",
      "outputs": [
        {
          "internalType": "enum DeadSwitchVault.Tier",
          "name": "",
          "type": "uint8"
        }
      ],
      "stateMutability": "view",
      "type": "function"
    },
    {
      "inputs": [],
      "name": "owner",
      "outputs": [
        {
          "internalType": "address",
          "name": "",
          "type": "address"
        }
      ],
      "stateMutability": "view",
      "type": "function"
    },
    {
      "inputs": [
        {
          "internalType": "bytes",
          "name": "performData",
          "type": "bytes"
        }
      ],
      "name": "performUpkeep",
      "outputs": [],
      "stateMutability": "nonpayable",
      "type": "function"
    },
    {
      "inputs": [],
      "name": "platformWallet",
      "outputs": [
        {
          "internalType": "address",
          "name": "",
          "type": "address"
        }
      ],
      "stateMutability": "view",
      "type": "function"
    },
    {
      "inputs": [
        {
          "internalType": "enum DeadSwitchVault.Tier",
          "name": "_tier",
          "type": "uint8"
        }
      ],
      "name": "subscribe",
      "outputs": [],
      "stateMutability": "nonpayable",
      "type": "function"
    },
    {
      "inputs": [
        {
          "internalType": "address",
          "name": "",
          "type": "address"
        }
      ],
      "name": "subscriptions",
      "outputs": [
        {
          "internalType": "enum DeadSwitchVault.Tier",
          "name": "tier",
          "type": "uint8"
        },
        {
          "internalType": "uint256",
          "name": "expiresAt",
          "type": "uint256"
        }
      ],
      "stateMutability": "view",
      "type": "function"
    },
    {
      "inputs": [],
      "name": "switchCount",
      "outputs": [
        {
          "internalType": "uint256",
          "name": "",
          "type": "uint256"
        }
      ],
      "stateMutability": "view",
      "type": "function"
    },
    {
      "inputs": [
        {
          "internalType": "uint256",
          "name": "",
          "type": "uint256"
        }
      ],
      "name": "switches",
      "outputs": [
        {
          "internalType": "address",
          "name": "owner",
          "type": "address"
        },
        {
          "internalType": "address",
          "name": "backup",
          "type": "address"
        },
        {
          "internalType": "uint256",
          "name": "amount",
          "type": "uint256"
        },
        {
          "internalType": "uint256",
          "name": "deadline",
          "type": "uint256"
        },
        {
          "internalType": "bool",
          "name": "executed",
          "type": "bool"
        },
        {
          "internalType": "bool",
          "name": "cancelled",
          "type": "bool"
        }
      ],
      "stateMutability": "view",
      "type": "function"
    },
    {
      "inputs": [
        {
          "internalType": "uint256",
          "name": "id",
          "type": "uint256"
        }
      ],
      "name": "timeRemaining",
      "outputs": [
        {
          "internalType": "uint256",
          "name": "",
          "type": "uint256"
        }
      ],
      "stateMutability": "view",
      "type": "function"
    },
    {
      "inputs": [
        {
          "internalType": "address",
          "name": "_newWallet",
          "type": "address"
        }
      ],
      "name": "updatePlatformWallet",
      "outputs": [],
      "stateMutability": "nonpayable",
      "type": "function"
    },
    {
      "inputs": [],
      "name": "usdc",
      "outputs": [
        {
          "internalType": "contract IERC20",
          "name": "",
          "type": "address"
        }
      ],
      "stateMutability": "view",
      "type": "function"
    }
  ],
  "bytecode": "0x60806040523480156200001157600080fd5b5060405162002f8338038062002f8383398181016040528101906200003791906200016b565b816000806101000a81548173ffffffffffffffffffffffffffffffffffffffff021916908373ffffffffffffffffffffffffffffffffffffffff16021790555080600160006101000a81548173ffffffffffffffffffffffffffffffffffffffff021916908373ffffffffffffffffffffffffffffffffffffffff16021790555033600260006101000a81548173ffffffffffffffffffffffffffffffffffffffff021916908373ffffffffffffffffffffffffffffffffffffffff1602179055505050620001b2565b600080fd5b600073ffffffffffffffffffffffffffffffffffffffff82169050919050565b6000620001338262000106565b9050919050565b620001458162000126565b81146200015157600080fd5b50565b60008151905062000165816200013a565b92915050565b6000806040838503121562000185576200018462000101565b5b6000620001958582860162000154565b9250506020620001a88582860162000154565b9150509250929050565b612dc180620001c26000396000f3fe608060405234801561001057600080fd5b50600436106102065760003560e01c80638da5cb5b1161011a578063cbdd8dce116100ad578063ea3d90201161007c578063ea3d902014610619578063f046395a14610649578063f516f88e1461067a578063fa2af9da14610696578063fe0d94c1146106b457610206565b8063cbdd8dce1461058f578063d7416ea1146105bf578063da823010146105dd578063e9e6ffca146105fb57610206565b8063ada4ef30116100e9578063ada4ef3014610507578063b45aae5214610523578063c536a11914610553578063c9a5680b1461057157610206565b80638da5cb5b1461047d5780638fb456d71461049b578063942ac293146104b95780639f809c8f146104e957610206565b80634585e33b1161019d578063667a5f0a1161016c578063667a5f0a146103a65780636e04ff0d146103c45780637702b1eb146103f5578063825f127614610413578063881ec10b1461044857610206565b80634585e33b14610320578063484bf45c1461033c57806349c7e6391461036c5780634ea3f6fc1461038857610206565b8063359cf175116101d9578063359cf175146102985780633e413bee146102c85780633e967478146102e657806340e58ee51461030457610206565b806304a361581461020b5780630cbebc2414610229578063234733841461025c57806325e943d21461027a575b600080fd5b6102136106d0565b6040516102209190612097565b60405180910390f35b610243600480360381019061023e919061211a565b6106d7565b60405161025394939291906121be565b60405180910390f35b61026461074a565b6040516102719190612097565b60405180910390f35b610282610752565b60405161028f9190612097565b60405180910390f35b6102b260048036038101906102ad919061211a565b610759565b6040516102bf9190612097565b60405180910390f35b6102d0610771565b6040516102dd9190612262565b60405180910390f35b6102ee610795565b6040516102fb9190612097565b60405180910390f35b61031e600480360381019061031991906122a9565b61079a565b005b61033a6004803603810190610335919061233b565b610b15565b005b61035660048036038101906103519190612388565b610bcb565b6040516103639190612097565b60405180910390f35b61038660048036038101906103819190612400565b611083565b005b61039061140f565b60405161039d9190612097565b60405180910390f35b6103ae611414565b6040516103bb9190612097565b60405180910390f35b6103de60048036038101906103d9919061233b565b61141c565b6040516103ec9291906124d8565b60405180910390f35b6103fd6114ea565b60405161040a9190612097565b60405180910390f35b61042d600480360381019061042891906122a9565b6114f0565b60405161043f96959493929190612517565b60405180910390f35b610462600480360381019061045d91906122a9565b61159e565b60405161047496959493929190612517565b60405180910390f35b610485611634565b6040516104929190612578565b60405180910390f35b6104a361165a565b6040516104b09190612097565b60405180910390f35b6104d360048036038101906104ce919061211a565b611662565b6040516104e09190612097565b60405180910390f35b6104f161173c565b6040516104fe9190612097565b60405180910390f35b610521600480360381019061051c919061211a565b611743565b005b61053d6004803603810190610538919061211a565b611817565b60405161054a9190612593565b60405180910390f35b61055b6118e5565b6040516105689190612097565b60405180910390f35b6105796118ec565b6040516105869190612097565b60405180910390f35b6105a960048036038101906105a4919061211a565b6118f4565b6040516105b69190612097565b60405180910390f35b6105c76119b8565b6040516105d49190612097565b60405180910390f35b6105e56119bf565b6040516105f29190612097565b60405180910390f35b6106036119c6565b6040516106109190612097565b60405180910390f35b610633600480360381019061062e91906122a9565b6119cb565b6040516106409190612097565b60405180910390f35b610663600480360381019061065e919061211a565b611a11565b6040516106719291906125ae565b60405180910390f35b610694600480360381019061068f91906125d7565b611a42565b005b61069e611cad565b6040516106ab9190612578565b60405180910390f35b6106ce60048036038101906106c991906122a9565b611cd3565b005b6276a70081565b6000806000806106e685611817565b600360008773ffffffffffffffffffffffffffffffffffffffff1673ffffffffffffffffffffffffffffffffffffffff1681526020019081526020016000206001015461073287611662565b61073b886118f4565b93509350935093509193509193565b6301e1338081565b62278d0081565b60046020528060005260406000206000915090505481565b60008054906101000a900473ffffffffffffffffffffffffffffffffffffffff1681565b600581565b60006006600083815260200190815260200160002090508060000160009054906101000a900473ffffffffffffffffffffffffffffffffffffffff1673ffffffffffffffffffffffffffffffffffffffff163373ffffffffffffffffffffffffffffffffffffffff1614610843576040517f08c379a000000000000000000000000000000000000000000000000000000000815260040161083a90612674565b60405180910390fd5b8060040160009054906101000a900460ff1615610895576040517f08c379a000000000000000000000000000000000000000000000000000000000815260040161088c906126e0565b60405180910390fd5b8060040160019054906101000a900460ff16156108e7576040517f08c379a00000000000000000000000000000000000000000000000000000000081526004016108de9061274c565b60405180910390fd5b60018160040160016101000a81548160ff0219169083151502179055506000600460003373ffffffffffffffffffffffffffffffffffffffff1673ffffffffffffffffffffffffffffffffffffffff168152602001908152602001600020541161095257600061099f565b6001600460003373ffffffffffffffffffffffffffffffffffffffff1673ffffffffffffffffffffffffffffffffffffffff1681526020019081526020016000205461099e919061279b565b5b600460003373ffffffffffffffffffffffffffffffffffffffff1673ffffffffffffffffffffffffffffffffffffffff1681526020019081526020016000208190555060008054906101000a900473ffffffffffffffffffffffffffffffffffffffff1673ffffffffffffffffffffffffffffffffffffffff1663a9059cbb8260000160009054906101000a900473ffffffffffffffffffffffffffffffffffffffff1683600201546040518363ffffffff1660e01b8152600401610a659291906127cf565b6020604051808303816000875af1158015610a84573d6000803e3d6000fd5b505050506040513d601f19601f82011682018060405250810190610aa89190612824565b508060000160009054906101000a900473ffffffffffffffffffffffffffffffffffffffff1673ffffffffffffffffffffffffffffffffffffffff16827f26deca31ff8139a06c52453ce8985d34f7648a6d9af1d283c4063d052c355a0f60405160405180910390a35050565b60008282810190610b2691906122a9565b905060006006600083815260200190815260200160002090508060040160009054906101000a900460ff16158015610b6d57508060040160019054906101000a900460ff16155b8015610b7d575080600301544210155b610bbc576040517f08c379a0000000000000000000000000000000000000000000000000000000008152600401610bb39061289d565b60405180910390fd5b610bc582611cd3565b50505050565b60008073ffffffffffffffffffffffffffffffffffffffff168473ffffffffffffffffffffffffffffffffffffffff1603610c3b576040517f08c379a0000000000000000000000000000000000000000000000000000000008152600401610c3290612909565b60405180910390fd5b60008311610c7e576040517f08c379a0000000000000000000000000000000000000000000000000000000008152600401610c7590612975565b60405180910390fd5b60008211610cc1576040517f08c379a0000000000000000000000000000000000000000000000000000000008152600401610cb8906129e1565b60405180910390fd5b610cca33611662565b600460003373ffffffffffffffffffffffffffffffffffffffff1673ffffffffffffffffffffffffffffffffffffffff1681526020019081526020016000205410610d4a576040517f08c379a0000000000000000000000000000000000000000000000000000000008152600401610d4190612a73565b60405180910390fd5b610d53336118f4565b821115610d95576040517f08c379a0000000000000000000000000000000000000000000000000000000008152600401610d8c90612adf565b60405180910390fd5b60008054906101000a900473ffffffffffffffffffffffffffffffffffffffff1673ffffffffffffffffffffffffffffffffffffffff166323b872dd3330866040518463ffffffff1660e01b8152600401610df293929190612aff565b6020604051808303816000875af1158015610e11573d6000803e3d6000fd5b505050506040513d601f19601f82011682018060405250810190610e359190612824565b5060056000815480929190610e4990612b36565b9190505550600460003373ffffffffffffffffffffffffffffffffffffffff1673ffffffffffffffffffffffffffffffffffffffff1681526020019081526020016000206000815480929190610e9e90612b36565b919050555060008242610eb19190612b7e565b90506040518060c001604052803373ffffffffffffffffffffffffffffffffffffffff1681526020018673ffffffffffffffffffffffffffffffffffffffff1681526020018581526020018281526020016000151581526020016000151581525060066000600554815260200190815260200160002060008201518160000160006101000a81548173ffffffffffffffffffffffffffffffffffffffff021916908373ffffffffffffffffffffffffffffffffffffffff16021790555060208201518160010160006101000a81548173ffffffffffffffffffffffffffffffffffffffff021916908373ffffffffffffffffffffffffffffffffffffffff160217905550604082015181600201556060820151816003015560808201518160040160006101000a81548160ff02191690831515021790555060a08201518160040160016101000a81548160ff0219169083151502179055509050508473ffffffffffffffffffffffffffffffffffffffff163373ffffffffffffffffffffffffffffffffffffffff166005547f9a663fabe00ae5988f58f3fcb0b4585601099a88f34ca1f3a6d31d3d1ce21403878560405161106e929190612bb2565b60405180910390a46005549150509392505050565b6000600381111561109757611096612147565b5b8160038111156110aa576110a9612147565b5b036110ea576040517f08c379a00000000000000000000000000000000000000000000000000000000081526004016110e190612c27565b60405180910390fd5b6000806001600381111561110157611100612147565b5b83600381111561111457611113612147565b5b0361112a5762e4e1c0915062278d0090506111a4565b6002600381111561113e5761113d612147565b5b83600381111561115157611150612147565b5b03611168576302faf080915062ed4e0090506111a3565b60038081111561117b5761117a612147565b5b83600381111561118e5761118d612147565b5b036111a2576308f0d18091506301e1338090505b5b5b60008054906101000a900473ffffffffffffffffffffffffffffffffffffffff1673ffffffffffffffffffffffffffffffffffffffff166323b872dd33600160009054906101000a900473ffffffffffffffffffffffffffffffffffffffff16856040518463ffffffff1660e01b815260040161122393929190612aff565b6020604051808303816000875af1158015611242573d6000803e3d6000fd5b505050506040513d601f19601f820116820180604052508101906112669190612824565b6112a5576040517f08c379a000000000000000000000000000000000000000000000000000000000815260040161129c90612c93565b60405180910390fd5b6000600360003373ffffffffffffffffffffffffffffffffffffffff1673ffffffffffffffffffffffffffffffffffffffff16815260200190815260200160002060010154905060004282116112fb57426112fd565b815b9050604051806040016040528086600381111561131d5761131c612147565b5b8152602001848361132e9190612b7e565b815250600360003373ffffffffffffffffffffffffffffffffffffffff1673ffffffffffffffffffffffffffffffffffffffff16815260200190815260200160002060008201518160000160006101000a81548160ff0219169083600381111561139b5761139a612147565b5b0217905550602082015181600101559050503373ffffffffffffffffffffffffffffffffffffffff167f044f95a2d17727b5b87e4f23d70278b59a2b0b285289cc9021cac8cdba4797b78685846113f29190612b7e565b6040516114009291906125ae565b60405180910390a25050505050565b600181565b6302faf08081565b600060606000600190505b60055481116114cb5760006006600083815260200190815260200160002090508060040160009054906101000a900460ff1615801561147557508060040160019054906101000a900460ff16155b8015611485575080600301544210155b156114b75760018260405160200161149d9190612097565b6040516020818303038152906040529350935050506114e3565b5080806114c390612b36565b915050611427565b50600060405180602001604052806000815250915091505b9250929050565b60055481565b60008060008060008060006006600089815260200190815260200160002090508060000160009054906101000a900473ffffffffffffffffffffffffffffffffffffffff168160010160009054906101000a900473ffffffffffffffffffffffffffffffffffffffff16826002015483600301548460040160009054906101000a900460ff168560040160019054906101000a900460ff169650965096509650965096505091939550919395565b60066020528060005260406000206000915090508060000160009054906101000a900473ffffffffffffffffffffffffffffffffffffffff16908060010160009054906101000a900473ffffffffffffffffffffffffffffffffffffffff16908060020154908060030154908060040160009054906101000a900460ff16908060040160019054906101000a900460ff16905086565b600260009054906101000a900473ffffffffffffffffffffffffffffffffffffffff1681565b6308f0d18081565b60008061166e83611817565b90506000600381111561168457611683612147565b5b81600381111561169757611696612147565b5b036116a6576001915050611737565b600160038111156116ba576116b9612147565b5b8160038111156116cd576116cc612147565b5b036116dc576002915050611737565b600260038111156116f0576116ef612147565b5b81600381111561170357611702612147565b5b03611712576005915050611737565b7fffffffffffffffffffffffffffffffffffffffffffffffffffffffffffffffff9150505b919050565b62e4e1c081565b600260009054906101000a900473ffffffffffffffffffffffffffffffffffffffff1673ffffffffffffffffffffffffffffffffffffffff163373ffffffffffffffffffffffffffffffffffffffff16146117d3576040517f08c379a00000000000000000000000000000000000000000000000000000000081526004016117ca90612674565b60405180910390fd5b80600160006101000a81548173ffffffffffffffffffffffffffffffffffffffff021916908373ffffffffffffffffffffffffffffffffffffffff16021790555050565b600080600360008473ffffffffffffffffffffffffffffffffffffffff1673ffffffffffffffffffffffffffffffffffffffff1681526020019081526020016000206040518060400160405290816000820160009054906101000a900460ff16600381111561188957611888612147565b5b600381111561189b5761189a612147565b5b8152602001600182015481525050905060008160200151036118c15760009150506118e0565b80602001514211156118d75760009150506118e0565b80600001519150505b919050565b62ed4e0081565b6301e1338081565b60008061190083611817565b90506000600381111561191657611915612147565b5b81600381111561192957611928612147565b5b0361193a5762278d009150506119b3565b6001600381111561194e5761194d612147565b5b81600381111561196157611960612147565b5b03611972576276a7009150506119b3565b6002600381111561198657611985612147565b5b81600381111561199957611998612147565b5b036119aa5762ed4e009150506119b3565b6301e133809150505b919050565b62ed4e0081565b62278d0081565b600281565b600080600660008481526020019081526020016000209050806003015442106119f8576000915050611a0c565b428160030154611a08919061279b565b9150505b919050565b60036020528060005260406000206000915090508060000160009054906101000a900460ff16908060010154905082565b60006006600084815260200190815260200160002090508060000160009054906101000a900473ffffffffffffffffffffffffffffffffffffffff1673ffffffffffffffffffffffffffffffffffffffff163373ffffffffffffffffffffffffffffffffffffffff1614611aeb576040517f08c379a0000000000000000000000000000000000000000000000000000000008152600401611ae290612674565b60405180910390fd5b8060040160009054906101000a900460ff1615611b3d576040517f08c379a0000000000000000000000000000000000000000000000000000000008152600401611b34906126e0565b60405180910390fd5b8060040160019054906101000a900460ff1615611b8f576040517f08c379a0000000000000000000000000000000000000000000000000000000008152600401611b8690612cff565b60405180910390fd5b60008211611bd2576040517f08c379a0000000000000000000000000000000000000000000000000000000008152600401611bc9906129e1565b60405180910390fd5b611bdb336118f4565b821115611c1d576040517f08c379a0000000000000000000000000000000000000000000000000000000008152600401611c1490612adf565b60405180910390fd5b8142611c299190612b7e565b81600301819055508060000160009054906101000a900473ffffffffffffffffffffffffffffffffffffffff1673ffffffffffffffffffffffffffffffffffffffff16837f3fd56a141c7bca393ccfa4d04d45222f3f329deeb0cb7ac2103dc475db7b6f198360030154604051611ca09190612097565b60405180910390a3505050565b600160009054906101000a900473ffffffffffffffffffffffffffffffffffffffff1681565b60006006600083815260200190815260200160002090508060040160009054906101000a900460ff1615611d3c576040517f08c379a0000000000000000000000000000000000000000000000000000000008152600401611d33906126e0565b60405180910390fd5b8060040160019054906101000a900460ff1615611d8e576040517f08c379a0000000000000000000000000000000000000000000000000000000008152600401611d8590612cff565b60405180910390fd5b8060030154421015611dd5576040517f08c379a0000000000000000000000000000000000000000000000000000000008152600401611dcc90612d6b565b60405180910390fd5b60018160040160006101000a81548160ff0219169083151502179055506000600460008360000160009054906101000a900473ffffffffffffffffffffffffffffffffffffffff1673ffffffffffffffffffffffffffffffffffffffff1673ffffffffffffffffffffffffffffffffffffffff1681526020019081526020016000205411611e64576000611ed5565b6001600460008360000160009054906101000a900473ffffffffffffffffffffffffffffffffffffffff1673ffffffffffffffffffffffffffffffffffffffff1673ffffffffffffffffffffffffffffffffffffffff16815260200190815260200160002054611ed4919061279b565b5b600460008360000160009054906101000a900473ffffffffffffffffffffffffffffffffffffffff1673ffffffffffffffffffffffffffffffffffffffff1673ffffffffffffffffffffffffffffffffffffffff1681526020019081526020016000208190555060008054906101000a900473ffffffffffffffffffffffffffffffffffffffff1673ffffffffffffffffffffffffffffffffffffffff1663a9059cbb8260010160009054906101000a900473ffffffffffffffffffffffffffffffffffffffff1683600201546040518363ffffffff1660e01b8152600401611fbf9291906127cf565b6020604051808303816000875af1158015611fde573d6000803e3d6000fd5b505050506040513d601f19601f820116820180604052508101906120029190612824565b508060010160009054906101000a900473ffffffffffffffffffffffffffffffffffffffff1673ffffffffffffffffffffffffffffffffffffffff16827f12c8907d32b752d626a36cf18f31719e25f1a3b6f750ee948c22c036373d48aa83600201546040516120729190612097565b60405180910390a35050565b6000819050919050565b6120918161207e565b82525050565b60006020820190506120ac6000830184612088565b92915050565b600080fd5b600080fd5b600073ffffffffffffffffffffffffffffffffffffffff82169050919050565b60006120e7826120bc565b9050919050565b6120f7816120dc565b811461210257600080fd5b50565b600081359050612114816120ee565b92915050565b6000602082840312156121305761212f6120b2565b5b600061213e84828501612105565b91505092915050565b7f4e487b7100000000000000000000000000000000000000000000000000000000600052602160045260246000fd5b6004811061218757612186612147565b5b50565b600081905061219882612176565b919050565b60006121a88261218a565b9050919050565b6121b88161219d565b82525050565b60006080820190506121d360008301876121af565b6121e06020830186612088565b6121ed6040830185612088565b6121fa6060830184612088565b95945050505050565b6000819050919050565b600061222861222361221e846120bc565b612203565b6120bc565b9050919050565b600061223a8261220d565b9050919050565b600061224c8261222f565b9050919050565b61225c81612241565b82525050565b60006020820190506122776000830184612253565b92915050565b6122868161207e565b811461229157600080fd5b50565b6000813590506122a38161227d565b92915050565b6000602082840312156122bf576122be6120b2565b5b60006122cd84828501612294565b91505092915050565b600080fd5b600080fd5b600080fd5b60008083601f8401126122fb576122fa6122d6565b5b8235905067ffffffffffffffff811115612318576123176122db565b5b602083019150836001820283011115612334576123336122e0565b5b9250929050565b60008060208385031215612352576123516120b2565b5b600083013567ffffffffffffffff8111156123705761236f6120b7565b5b61237c858286016122e5565b92509250509250929050565b6000806000606084860312156123a1576123a06120b2565b5b60006123af86828701612105565b93505060206123c086828701612294565b92505060406123d186828701612294565b9150509250925092565b600481106123e857600080fd5b50565b6000813590506123fa816123db565b92915050565b600060208284031215612416576124156120b2565b5b6000612424848285016123eb565b91505092915050565b60008115159050919050565b6124428161242d565b82525050565b600081519050919050565b600082825260208201905092915050565b60005b83811015612482578082015181840152602081019050612467565b60008484015250505050565b6000601f19601f8301169050919050565b60006124aa82612448565b6124b48185612453565b93506124c4818560208601612464565b6124cd8161248e565b840191505092915050565b60006040820190506124ed6000830185612439565b81810360208301526124ff818461249f565b90509392505050565b612511816120dc565b82525050565b600060c08201905061252c6000830189612508565b6125396020830188612508565b6125466040830187612088565b6125536060830186612088565b6125606080830185612439565b61256d60a0830184612439565b979650505050505050565b600060208201905061258d6000830184612508565b92915050565b60006020820190506125a860008301846121af565b92915050565b60006040820190506125c360008301856121af565b6125d06020830184612088565b9392505050565b600080604083850312156125ee576125ed6120b2565b5b60006125fc85828601612294565b925050602061260d85828601612294565b9150509250929050565b600082825260208201905092915050565b7f4e6f74206f776e65720000000000000000000000000000000000000000000000600082015250565b600061265e600983612617565b915061266982612628565b602082019050919050565b6000602082019050818103600083015261268d81612651565b9050919050565b7f416c726561647920657865637574656400000000000000000000000000000000600082015250565b60006126ca601083612617565b91506126d582612694565b602082019050919050565b600060208201905081810360008301526126f9816126bd565b9050919050565b7f416c72656164792063616e63656c6c6564000000000000000000000000000000600082015250565b6000612736601183612617565b915061274182612700565b602082019050919050565b6000602082019050818103600083015261276581612729565b9050919050565b7f4e487b7100000000000000000000000000000000000000000000000000000000600052601160045260246000fd5b60006127a68261207e565b91506127b18361207e565b92508282039050818111156127c9576127c861276c565b5b92915050565b60006040820190506127e46000830185612508565b6127f16020830184612088565b9392505050565b6128018161242d565b811461280c57600080fd5b50565b60008151905061281e816127f8565b92915050565b60006020828403121561283a576128396120b2565b5b60006128488482850161280f565b91505092915050565b7f4e6f742072656164790000000000000000000000000000000000000000000000600082015250565b6000612887600983612617565b915061289282612851565b602082019050919050565b600060208201905081810360008301526128b68161287a565b9050919050565b7f496e76616c6964206261636b7570000000000000000000000000000000000000600082015250565b60006128f3600e83612617565b91506128fe826128bd565b602082019050919050565b60006020820190508181036000830152612922816128e6565b9050919050565b7f416d6f756e74206d7573742062652067726561746572207468616e2030000000600082015250565b600061295f601d83612617565b915061296a82612929565b602082019050919050565b6000602082019050818103600083015261298e81612952565b9050919050565b7f54696d6572207265717569726564000000000000000000000000000000000000600082015250565b60006129cb600e83612617565b91506129d682612995565b602082019050919050565b600060208201905081810360008301526129fa816129be565b9050919050565b7f537769746368206c696d6974207265616368656420666f7220796f757220746960008201527f6572000000000000000000000000000000000000000000000000000000000000602082015250565b6000612a5d602283612617565b9150612a6882612a01565b604082019050919050565b60006020820190508181036000830152612a8c81612a50565b9050919050565b7f54696d6572206578636565647320796f75722074696572206c696d6974000000600082015250565b6000612ac9601d83612617565b9150612ad482612a93565b602082019050919050565b60006020820190508181036000830152612af881612abc565b9050919050565b6000606082019050612b146000830186612508565b612b216020830185612508565b612b2e6040830184612088565b949350505050565b6000612b418261207e565b91507fffffffffffffffffffffffffffffffffffffffffffffffffffffffffffffffff8203612b7357612b7261276c565b5b600182019050919050565b6000612b898261207e565b9150612b948361207e565b9250828201905080821115612bac57612bab61276c565b5b92915050565b6000604082019050612bc76000830185612088565b612bd46020830184612088565b9392505050565b7f467265652074696572206e65656473206e6f207061796d656e74000000000000600082015250565b6000612c11601a83612617565b9150612c1c82612bdb565b602082019050919050565b60006020820190508181036000830152612c4081612c04565b9050919050565b7f5061796d656e74206661696c6564000000000000000000000000000000000000600082015250565b6000612c7d600e83612617565b9150612c8882612c47565b602082019050919050565b60006020820190508181036000830152612cac81612c70565b9050919050565b7f43616e63656c6c65640000000000000000000000000000000000000000000000600082015250565b6000612ce9600983612617565b9150612cf482612cb3565b602082019050919050565b60006020820190508181036000830152612d1881612cdc565b9050919050565b7f546f6f206561726c790000000000000000000000000000000000000000000000600082015250565b6000612d55600983612617565b9150612d6082612d1f565b602082019050919050565b60006020820190508181036000830152612d8481612d48565b905091905056fea2646970667358221220087ea3bf8f28b685a014c60a5a0581b1f225abdaab9ff7bf600ace869b92c0d864736f6c63430008130033",
  "linkReferences": {},
  "deployedLinkReferences": {}
}