{
  "_format": "hh-sol-artifact-1",
  "contractName": "DeadSwitchVault",
  "sourceName": "contracts/DeadSwitchVault.sol",
  "abi": [
    {
      "inputs": [
        {
          "internalType": "address",
          "name": "_usdc",
          "type": "address"
        }
      ],
      "stateMutability": "nonpayable",
      "type": "constructor"
    },
    {
      "anonymous": false,
      "inputs": [
        {
          "indexed": true,
          "internalType": "uint256",
          "name": "id",
          "type": "uint256"
        },
        {
          "indexed": true,
          "internalType": "address",
          "name": "owner",
          "type": "address"
        }
      ],
      "name": "Cancelled",
      "type": "event"
    },
    {
      "anonymous": false,
      "inputs": [
        {
          "indexed": true,
          "internalType": "uint256",
          "name": "id",
          "type": "uint256"
        },
        {
          "indexed": true,
          "internalType": "address",
          "name": "owner",
          "type": "address"
        },
        {
          "indexed": false,
          "internalType": "uint256",
          "name": "newDeadline",
          "type": "uint256"
        }
      ],
      "name": "CheckIn",
      "type": "event"
    },
    {
      "anonymous": false,
      "inputs": [
        {
          "indexed": true,
          "internalType": "uint256",
          "name": "id",
          "type": "uint256"
        },
        {
          "indexed": true,
          "internalType": "address",
          "name": "backup",
          "type": "address"
        },
        {
          "indexed": false,
          "internalType": "uint256",
          "name": "amount",
          "type": "uint256"
        }
      ],
      "name": "Executed",
      "type": "event"
    },
    {
      "anonymous": false,
      "inputs": [
        {
          "indexed": true,
          "internalType": "uint256",
          "name": "id",
          "type": "uint256"
        },
        {
          "indexed": true,
          "internalType": "address",
          "name": "owner",
          "type": "address"
        },
        {
          "indexed": true,
          "internalType": "address",
          "name": "backup",
          "type": "address"
        },
        {
          "indexed": false,
          "internalType": "uint256",
          "name": "amount",
          "type": "uint256"
        },
        {
          "indexed": false,
          "internalType": "uint256",
          "name": "deadline",
          "type": "uint256"
        }
      ],
      "name": "SwitchCreated",
      "type": "event"
    },
    {
      "inputs": [
        {
          "internalType": "uint256",
          "name": "id",
          "type": "uint256"
        }
      ],
      "name": "cancel",
      "outputs": [],
      "stateMutability": "nonpayable",
      "type": "function"
    },
    {
      "inputs": [
        {
          "internalType": "uint256",
          "name": "id",
          "type": "uint256"
        },
        {
          "internalType": "uint256",
          "name": "_days",
          "type": "uint256"
        }
      ],
      "name": "checkIn",
      "outputs": [],
      "stateMutability": "nonpayable",
      "type": "function"
    },
    {
      "inputs": [
        {
          "internalType": "address",
          "name": "_backup",
          "type": "address"
        },
        {
          "internalType": "uint256",
          "name": "_amount",
          "type": "uint256"
        },
        {
          "internalType": "uint256",
          "name": "_days",
          "type": "uint256"
        }
      ],
      "name": "createSwitch",
      "outputs": [
        {
          "internalType": "uint256",
          "name": "",
          "type": "uint256"
        }
      ],
      "stateMutability": "nonpayable",
      "type": "function"
    },
    {
      "inputs": [
        {
          "internalType": "uint256",
          "name": "id",
          "type": "uint256"
        }
      ],
      "name": "execute",
      "outputs": [],
      "stateMutability": "nonpayable",
      "type": "function"
    },
    {
      "inputs": [
        {
          "internalType": "uint256",
          "name": "id",
          "type": "uint256"
        }
      ],
      "name": "getSwitch",
      "outputs": [
        {
          "internalType": "address",
          "name": "owner",
          "type": "address"
        },
        {
          "internalType": "address",
          "name": "backup",
          "type": "address"
        },
        {
          "internalType": "uint256",
          "name": "amount",
          "type": "uint256"
        },
        {
          "internalType": "uint256",
          "name": "deadline",
          "type": "uint256"
        },
        {
          "internalType": "bool",
          "name": "executed",
          "type": "bool"
        },
        {
          "internalType": "bool",
          "name": "cancelled",
          "type": "bool"
        }
      ],
      "stateMutability": "view",
      "type": "function"
    },
    {
      "inputs": [],
      "name": "switchCount",
      "outputs": [
        {
          "internalType": "uint256",
          "name": "",
          "type": "uint256"
        }
      ],
      "stateMutability": "view",
      "type": "function"
    },
    {
      "inputs": [
        {
          "internalType": "uint256",
          "name": "",
          "type": "uint256"
        }
      ],
      "name": "switches",
      "outputs": [
        {
          "internalType": "address",
          "name": "owner",
          "type": "address"
        },
        {
          "internalType": "address",
          "name": "backup",
          "type": "address"
        },
        {
          "internalType": "uint256",
          "name": "amount",
          "type": "uint256"
        },
        {
          "internalType": "uint256",
          "name": "deadline",
          "type": "uint256"
        },
        {
          "internalType": "bool",
          "name": "executed",
          "type": "bool"
        },
        {
          "internalType": "bool",
          "name": "cancelled",
          "type": "bool"
        }
      ],
      "stateMutability": "view",
      "type": "function"
    },
    {
      "inputs": [
        {
          "internalType": "uint256",
          "name": "id",
          "type": "uint256"
        }
      ],
      "name": "timeRemaining",
      "outputs": [
        {
          "internalType": "uint256",
          "name": "",
          "type": "uint256"
        }
      ],
      "stateMutability": "view",
      "type": "function"
    },
    {
      "inputs": [],
      "name": "usdc",
      "outputs": [
        {
          "internalType": "contract IERC20",
          "name": "",
          "type": "address"
        }
      ],
      "stateMutability": "view",
      "type": "function"
    }
  ],
  "bytecode": "0x60806040523480156200001157600080fd5b50604051620016d9380380620016d98339818101604052810190620000379190620000e8565b806000806101000a81548173ffffffffffffffffffffffffffffffffffffffff021916908373ffffffffffffffffffffffffffffffffffffffff160217905550506200011a565b600080fd5b600073ffffffffffffffffffffffffffffffffffffffff82169050919050565b6000620000b08262000083565b9050919050565b620000c281620000a3565b8114620000ce57600080fd5b50565b600081519050620000e281620000b7565b92915050565b6000602082840312156200010157620001006200007e565b5b60006200011184828501620000d1565b91505092915050565b6115af806200012a6000396000f3fe608060405234801561001057600080fd5b50600436106100935760003560e01c8063825f127611610066578063825f127614610120578063881ec10b14610155578063ea3d90201461018a578063f516f88e146101ba578063fe0d94c1146101d657610093565b80633e413bee1461009857806340e58ee5146100b6578063484bf45c146100d25780637702b1eb14610102575b600080fd5b6100a06101f2565b6040516100ad9190610e68565b60405180910390f35b6100d060048036038101906100cb9190610ebe565b610216565b005b6100ec60048036038101906100e79190610f29565b6104b3565b6040516100f99190610f8b565b60405180910390f35b61010a61080d565b6040516101179190610f8b565b60405180910390f35b61013a60048036038101906101359190610ebe565b610813565b60405161014c96959493929190610fd0565b60405180910390f35b61016f600480360381019061016a9190610ebe565b6108c1565b60405161018196959493929190610fd0565b60405180910390f35b6101a4600480360381019061019f9190610ebe565b610957565b6040516101b19190610f8b565b60405180910390f35b6101d460048036038101906101cf9190611031565b61099d565b005b6101f060048036038101906101eb9190610ebe565b610b88565b005b60008054906101000a900473ffffffffffffffffffffffffffffffffffffffff1681565b60006002600083815260200190815260200160002090508060000160009054906101000a900473ffffffffffffffffffffffffffffffffffffffff1673ffffffffffffffffffffffffffffffffffffffff163373ffffffffffffffffffffffffffffffffffffffff16146102bf576040517f08c379a00000000000000000000000000000000000000000000000000000000081526004016102b6906110ce565b60405180910390fd5b8060040160009054906101000a900460ff1615610311576040517f08c379a00000000000000000000000000000000000000000000000000000000081526004016103089061113a565b60405180910390fd5b8060040160019054906101000a900460ff1615610363576040517f08c379a000000000000000000000000000000000000000000000000000000000815260040161035a906111a6565b60405180910390fd5b60018160040160016101000a81548160ff02191690831515021790555060008054906101000a900473ffffffffffffffffffffffffffffffffffffffff1673ffffffffffffffffffffffffffffffffffffffff1663a9059cbb8260000160009054906101000a900473ffffffffffffffffffffffffffffffffffffffff1683600201546040518363ffffffff1660e01b81526004016104039291906111c6565b6020604051808303816000875af1158015610422573d6000803e3d6000fd5b505050506040513d601f19601f82011682018060405250810190610446919061121b565b508060000160009054906101000a900473ffffffffffffffffffffffffffffffffffffffff1673ffffffffffffffffffffffffffffffffffffffff16827f26deca31ff8139a06c52453ce8985d34f7648a6d9af1d283c4063d052c355a0f60405160405180910390a35050565b60008073ffffffffffffffffffffffffffffffffffffffff168473ffffffffffffffffffffffffffffffffffffffff1603610523576040517f08c379a000000000000000000000000000000000000000000000000000000000815260040161051a90611294565b60405180910390fd5b60008311610566576040517f08c379a000000000000000000000000000000000000000000000000000000000815260040161055d90611300565b60405180910390fd5b60008054906101000a900473ffffffffffffffffffffffffffffffffffffffff1673ffffffffffffffffffffffffffffffffffffffff166323b872dd3330866040518463ffffffff1660e01b81526004016105c393929190611320565b6020604051808303816000875af11580156105e2573d6000803e3d6000fd5b505050506040513d601f19601f82011682018060405250810190610606919061121b565b506001600081548092919061061a90611386565b91905055506000620151808361063091906113ce565b4261063b9190611410565b90506040518060c001604052803373ffffffffffffffffffffffffffffffffffffffff1681526020018673ffffffffffffffffffffffffffffffffffffffff1681526020018581526020018281526020016000151581526020016000151581525060026000600154815260200190815260200160002060008201518160000160006101000a81548173ffffffffffffffffffffffffffffffffffffffff021916908373ffffffffffffffffffffffffffffffffffffffff16021790555060208201518160010160006101000a81548173ffffffffffffffffffffffffffffffffffffffff021916908373ffffffffffffffffffffffffffffffffffffffff160217905550604082015181600201556060820151816003015560808201518160040160006101000a81548160ff02191690831515021790555060a08201518160040160016101000a81548160ff0219169083151502179055509050508473ffffffffffffffffffffffffffffffffffffffff163373ffffffffffffffffffffffffffffffffffffffff166001547f9a663fabe00ae5988f58f3fcb0b4585601099a88f34ca1f3a6d31d3d1ce2140387856040516107f8929190611444565b60405180910390a46001549150509392505050565b60015481565b60008060008060008060006002600089815260200190815260200160002090508060000160009054906101000a900473ffffffffffffffffffffffffffffffffffffffff168160010160009054906101000a900473ffffffffffffffffffffffffffffffffffffffff16826002015483600301548460040160009054906101000a900460ff168560040160019054906101000a900460ff169650965096509650965096505091939550919395565b60026020528060005260406000206000915090508060000160009054906101000a900473ffffffffffffffffffffffffffffffffffffffff16908060010160009054906101000a900473ffffffffffffffffffffffffffffffffffffffff16908060020154908060030154908060040160009054906101000a900460ff16908060040160019054906101000a900460ff16905086565b60008060026000848152602001908152602001600020905080600301544210610984576000915050610998565b428160030154610994919061146d565b9150505b919050565b60006002600084815260200190815260200160002090508060000160009054906101000a900473ffffffffffffffffffffffffffffffffffffffff1673ffffffffffffffffffffffffffffffffffffffff163373ffffffffffffffffffffffffffffffffffffffff1614610a46576040517f08c379a0000000000000000000000000000000000000000000000000000000008152600401610a3d906110ce565b60405180910390fd5b8060040160009054906101000a900460ff1615610a98576040517f08c379a0000000000000000000000000000000000000000000000000000000008152600401610a8f9061113a565b60405180910390fd5b8060040160019054906101000a900460ff1615610aea576040517f08c379a0000000000000000000000000000000000000000000000000000000008152600401610ae1906114ed565b60405180910390fd5b6201518082610af991906113ce565b42610b049190611410565b81600301819055508060000160009054906101000a900473ffffffffffffffffffffffffffffffffffffffff1673ffffffffffffffffffffffffffffffffffffffff16837f3fd56a141c7bca393ccfa4d04d45222f3f329deeb0cb7ac2103dc475db7b6f198360030154604051610b7b9190610f8b565b60405180910390a3505050565b60006002600083815260200190815260200160002090508060040160009054906101000a900460ff1615610bf1576040517f08c379a0000000000000000000000000000000000000000000000000000000008152600401610be89061113a565b60405180910390fd5b8060040160019054906101000a900460ff1615610c43576040517f08c379a0000000000000000000000000000000000000000000000000000000008152600401610c3a906114ed565b60405180910390fd5b8060030154421015610c8a576040517f08c379a0000000000000000000000000000000000000000000000000000000008152600401610c8190611559565b60405180910390fd5b60018160040160006101000a81548160ff02191690831515021790555060008054906101000a900473ffffffffffffffffffffffffffffffffffffffff1673ffffffffffffffffffffffffffffffffffffffff1663a9059cbb8260010160009054906101000a900473ffffffffffffffffffffffffffffffffffffffff1683600201546040518363ffffffff1660e01b8152600401610d2a9291906111c6565b6020604051808303816000875af1158015610d49573d6000803e3d6000fd5b505050506040513d601f19601f82011682018060405250810190610d6d919061121b565b508060010160009054906101000a900473ffffffffffffffffffffffffffffffffffffffff1673ffffffffffffffffffffffffffffffffffffffff16827f12c8907d32b752d626a36cf18f31719e25f1a3b6f750ee948c22c036373d48aa8360020154604051610ddd9190610f8b565b60405180910390a35050565b600073ffffffffffffffffffffffffffffffffffffffff82169050919050565b6000819050919050565b6000610e2e610e29610e2484610de9565b610e09565b610de9565b9050919050565b6000610e4082610e13565b9050919050565b6000610e5282610e35565b9050919050565b610e6281610e47565b82525050565b6000602082019050610e7d6000830184610e59565b92915050565b600080fd5b6000819050919050565b610e9b81610e88565b8114610ea657600080fd5b50565b600081359050610eb881610e92565b92915050565b600060208284031215610ed457610ed3610e83565b5b6000610ee284828501610ea9565b91505092915050565b6000610ef682610de9565b9050919050565b610f0681610eeb565b8114610f1157600080fd5b50565b600081359050610f2381610efd565b92915050565b600080600060608486031215610f4257610f41610e83565b5b6000610f5086828701610f14565b9350506020610f6186828701610ea9565b9250506040610f7286828701610ea9565b9150509250925092565b610f8581610e88565b82525050565b6000602082019050610fa06000830184610f7c565b92915050565b610faf81610eeb565b82525050565b60008115159050919050565b610fca81610fb5565b82525050565b600060c082019050610fe56000830189610fa6565b610ff26020830188610fa6565b610fff6040830187610f7c565b61100c6060830186610f7c565b6110196080830185610fc1565b61102660a0830184610fc1565b979650505050505050565b6000806040838503121561104857611047610e83565b5b600061105685828601610ea9565b925050602061106785828601610ea9565b9150509250929050565b600082825260208201905092915050565b7f4e6f74206f776e65720000000000000000000000000000000000000000000000600082015250565b60006110b8600983611071565b91506110c382611082565b602082019050919050565b600060208201905081810360008301526110e7816110ab565b9050919050565b7f416c726561647920657865637574656400000000000000000000000000000000600082015250565b6000611124601083611071565b915061112f826110ee565b602082019050919050565b6000602082019050818103600083015261115381611117565b9050919050565b7f416c72656164792063616e63656c6c6564000000000000000000000000000000600082015250565b6000611190601183611071565b915061119b8261115a565b602082019050919050565b600060208201905081810360008301526111bf81611183565b9050919050565b60006040820190506111db6000830185610fa6565b6111e86020830184610f7c565b9392505050565b6111f881610fb5565b811461120357600080fd5b50565b600081519050611215816111ef565b92915050565b60006020828403121561123157611230610e83565b5b600061123f84828501611206565b91505092915050565b7f496e76616c6964206261636b7570000000000000000000000000000000000000600082015250565b600061127e600e83611071565b915061128982611248565b602082019050919050565b600060208201905081810360008301526112ad81611271565b9050919050565b7f416d6f756e74206d7573742062652067726561746572207468616e2030000000600082015250565b60006112ea601d83611071565b91506112f5826112b4565b602082019050919050565b60006020820190508181036000830152611319816112dd565b9050919050565b60006060820190506113356000830186610fa6565b6113426020830185610fa6565b61134f6040830184610f7c565b949350505050565b7f4e487b7100000000000000000000000000000000000000000000000000000000600052601160045260246000fd5b600061139182610e88565b91507fffffffffffffffffffffffffffffffffffffffffffffffffffffffffffffffff82036113c3576113c2611357565b5b600182019050919050565b60006113d982610e88565b91506113e483610e88565b92508282026113f281610e88565b9150828204841483151761140957611408611357565b5b5092915050565b600061141b82610e88565b915061142683610e88565b925082820190508082111561143e5761143d611357565b5b92915050565b60006040820190506114596000830185610f7c565b6114666020830184610f7c565b9392505050565b600061147882610e88565b915061148383610e88565b925082820390508181111561149b5761149a611357565b5b92915050565b7f43616e63656c6c65640000000000000000000000000000000000000000000000600082015250565b60006114d7600983611071565b91506114e2826114a1565b602082019050919050565b60006020820190508181036000830152611506816114ca565b9050919050565b7f546f6f206561726c790000000000000000000000000000000000000000000000600082015250565b6000611543600983611071565b915061154e8261150d565b602082019050919050565b6000602082019050818103600083015261157281611536565b905091905056fea26469706673582212204e59a3c556621cae1be1cd5a5035056cc8d7e0cf3b1699f343c5176d919350f964736f6c63430008130033",
  "linkReferences": {},
  "deployedLinkReferences": {}
}