{
  "_format": "hh-sol-artifact-1",
  "contractName": "DeadSwitchVault",
  "sourceName": "contracts/DeadSwitchVault.sol",
  "abi": [
    {
      "inputs": [
        {
          "internalType": "address",
          "name": "_usdc",
          "type": "address"
        }
      ],
      "stateMutability": "nonpayable",
      "type": "constructor"
    },
    {
      "anonymous": false,
      "inputs": [
        {
          "indexed": true,
          "internalType": "uint256",
          "name": "id",
          "type": "uint256"
        },
        {
          "indexed": true,
          "internalType": "address",
          "name": "owner",
          "type": "address"
        }
      ],
      "name": "Cancelled",
      "type": "event"
    },
    {
      "anonymous": false,
      "inputs": [
        {
          "indexed": true,
          "internalType": "uint256",
          "name": "id",
          "type": "uint256"
        },
        {
          "indexed": true,
          "internalType": "address",
          "name": "owner",
          "type": "address"
        },
        {
          "indexed": false,
          "internalType": "uint256",
          "name": "newDeadline",
          "type": "uint256"
        }
      ],
      "name": "CheckIn",
      "type": "event"
    },
    {
      "anonymous": false,
      "inputs": [
        {
          "indexed": true,
          "internalType": "uint256",
          "name": "id",
          "type": "uint256"
        },
        {
          "indexed": true,
          "internalType": "address",
          "name": "backup",
          "type": "address"
        },
        {
          "indexed": false,
          "internalType": "uint256",
          "name": "amount",
          "type": "uint256"
        }
      ],
      "name": "Executed",
      "type": "event"
    },
    {
      "anonymous": false,
      "inputs": [
        {
          "indexed": true,
          "internalType": "uint256",
          "name": "id",
          "type": "uint256"
        },
        {
          "indexed": true,
          "internalType": "address",
          "name": "owner",
          "type": "address"
        },
        {
          "indexed": true,
          "internalType": "address",
          "name": "backup",
          "type": "address"
        },
        {
          "indexed": false,
          "internalType": "uint256",
          "name": "amount",
          "type": "uint256"
        },
        {
          "indexed": false,
          "internalType": "uint256",
          "name": "deadline",
          "type": "uint256"
        }
      ],
      "name": "SwitchCreated",
      "type": "event"
    },
    {
      "inputs": [
        {
          "internalType": "uint256",
          "name": "id",
          "type": "uint256"
        }
      ],
      "name": "cancel",
      "outputs": [],
      "stateMutability": "nonpayable",
      "type": "function"
    },
    {
      "inputs": [
        {
          "internalType": "uint256",
          "name": "id",
          "type": "uint256"
        },
        {
          "internalType": "uint256",
          "name": "_durationSeconds",
          "type": "uint256"
        }
      ],
      "name": "checkIn",
      "outputs": [],
      "stateMutability": "nonpayable",
      "type": "function"
    },
    {
      "inputs": [
        {
          "internalType": "bytes",
          "name": "",
          "type": "bytes"
        }
      ],
      "name": "checkUpkeep",
      "outputs": [
        {
          "internalType": "bool",
          "name": "upkeepNeeded",
          "type": "bool"
        },
        {
          "internalType": "bytes",
          "name": "performData",
          "type": "bytes"
        }
      ],
      "stateMutability": "view",
      "type": "function"
    },
    {
      "inputs": [
        {
          "internalType": "address",
          "name": "_backup",
          "type": "address"
        },
        {
          "internalType": "uint256",
          "name": "_amount",
          "type": "uint256"
        },
        {
          "internalType": "uint256",
          "name": "_durationSeconds",
          "type": "uint256"
        }
      ],
      "name": "createSwitch",
      "outputs": [
        {
          "internalType": "uint256",
          "name": "",
          "type": "uint256"
        }
      ],
      "stateMutability": "nonpayable",
      "type": "function"
    },
    {
      "inputs": [
        {
          "internalType": "uint256",
          "name": "id",
          "type": "uint256"
        }
      ],
      "name": "execute",
      "outputs": [],
      "stateMutability": "nonpayable",
      "type": "function"
    },
    {
      "inputs": [
        {
          "internalType": "uint256",
          "name": "id",
          "type": "uint256"
        }
      ],
      "name": "getSwitch",
      "outputs": [
        {
          "internalType": "address",
          "name": "owner",
          "type": "address"
        },
        {
          "internalType": "address",
          "name": "backup",
          "type": "address"
        },
        {
          "internalType": "uint256",
          "name": "amount",
          "type": "uint256"
        },
        {
          "internalType": "uint256",
          "name": "deadline",
          "type": "uint256"
        },
        {
          "internalType": "bool",
          "name": "executed",
          "type": "bool"
        },
        {
          "internalType": "bool",
          "name": "cancelled",
          "type": "bool"
        }
      ],
      "stateMutability": "view",
      "type": "function"
    },
    {
      "inputs": [
        {
          "internalType": "bytes",
          "name": "performData",
          "type": "bytes"
        }
      ],
      "name": "performUpkeep",
      "outputs": [],
      "stateMutability": "nonpayable",
      "type": "function"
    },
    {
      "inputs": [],
      "name": "switchCount",
      "outputs": [
        {
          "internalType": "uint256",
          "name": "",
          "type": "uint256"
        }
      ],
      "stateMutability": "view",
      "type": "function"
    },
    {
      "inputs": [
        {
          "internalType": "uint256",
          "name": "",
          "type": "uint256"
        }
      ],
      "name": "switches",
      "outputs": [
        {
          "internalType": "address",
          "name": "owner",
          "type": "address"
        },
        {
          "internalType": "address",
          "name": "backup",
          "type": "address"
        },
        {
          "internalType": "uint256",
          "name": "amount",
          "type": "uint256"
        },
        {
          "internalType": "uint256",
          "name": "deadline",
          "type": "uint256"
        },
        {
          "internalType": "bool",
          "name": "executed",
          "type": "bool"
        },
        {
          "internalType": "bool",
          "name": "cancelled",
          "type": "bool"
        }
      ],
      "stateMutability": "view",
      "type": "function"
    },
    {
      "inputs": [
        {
          "internalType": "uint256",
          "name": "id",
          "type": "uint256"
        }
      ],
      "name": "timeRemaining",
      "outputs": [
        {
          "internalType": "uint256",
          "name": "",
          "type": "uint256"
        }
      ],
      "stateMutability": "view",
      "type": "function"
    },
    {
      "inputs": [],
      "name": "usdc",
      "outputs": [
        {
          "internalType": "contract IERC20",
          "name": "",
          "type": "address"
        }
      ],
      "stateMutability": "view",
      "type": "function"
    }
  ],
  "bytecode": "0x60806040523480156200001157600080fd5b5060405162001b3738038062001b378339818101604052810190620000379190620000e8565b806000806101000a81548173ffffffffffffffffffffffffffffffffffffffff021916908373ffffffffffffffffffffffffffffffffffffffff160217905550506200011a565b600080fd5b600073ffffffffffffffffffffffffffffffffffffffff82169050919050565b6000620000b08262000083565b9050919050565b620000c281620000a3565b8114620000ce57600080fd5b50565b600081519050620000e281620000b7565b92915050565b6000602082840312156200010157620001006200007e565b5b60006200011184828501620000d1565b91505092915050565b611a0d806200012a6000396000f3fe608060405234801561001057600080fd5b50600436106100a95760003560e01c80637702b1eb116100715780637702b1eb14610165578063825f127614610183578063881ec10b146101b8578063ea3d9020146101ed578063f516f88e1461021d578063fe0d94c114610239576100a9565b80633e413bee146100ae57806340e58ee5146100cc5780634585e33b146100e8578063484bf45c146101045780636e04ff0d14610134575b600080fd5b6100b6610255565b6040516100c391906110b9565b60405180910390f35b6100e660048036038101906100e19190611114565b610279565b005b61010260048036038101906100fd91906111a6565b610516565b005b61011e60048036038101906101199190611231565b6105cc565b60405161012b9190611293565b60405180910390f35b61014e600480360381019061014991906111a6565b61095b565b60405161015c929190611359565b60405180910390f35b61016d610a29565b60405161017a9190611293565b60405180910390f35b61019d60048036038101906101989190611114565b610a2f565b6040516101af96959493929190611398565b60405180910390f35b6101d260048036038101906101cd9190611114565b610add565b6040516101e496959493929190611398565b60405180910390f35b61020760048036038101906102029190611114565b610b73565b6040516102149190611293565b60405180910390f35b610237600480360381019061023291906113f9565b610bb9565b005b610253600480360381019061024e9190611114565b610dd9565b005b60008054906101000a900473ffffffffffffffffffffffffffffffffffffffff1681565b60006002600083815260200190815260200160002090508060000160009054906101000a900473ffffffffffffffffffffffffffffffffffffffff1673ffffffffffffffffffffffffffffffffffffffff163373ffffffffffffffffffffffffffffffffffffffff1614610322576040517f08c379a000000000000000000000000000000000000000000000000000000000815260040161031990611496565b60405180910390fd5b8060040160009054906101000a900460ff1615610374576040517f08c379a000000000000000000000000000000000000000000000000000000000815260040161036b90611502565b60405180910390fd5b8060040160019054906101000a900460ff16156103c6576040517f08c379a00000000000000000000000000000000000000000000000000000000081526004016103bd9061156e565b60405180910390fd5b60018160040160016101000a81548160ff02191690831515021790555060008054906101000a900473ffffffffffffffffffffffffffffffffffffffff1673ffffffffffffffffffffffffffffffffffffffff1663a9059cbb8260000160009054906101000a900473ffffffffffffffffffffffffffffffffffffffff1683600201546040518363ffffffff1660e01b815260040161046692919061158e565b6020604051808303816000875af1158015610485573d6000803e3d6000fd5b505050506040513d601f19601f820116820180604052508101906104a991906115e3565b508060000160009054906101000a900473ffffffffffffffffffffffffffffffffffffffff1673ffffffffffffffffffffffffffffffffffffffff16827f26deca31ff8139a06c52453ce8985d34f7648a6d9af1d283c4063d052c355a0f60405160405180910390a35050565b600082828101906105279190611114565b905060006002600083815260200190815260200160002090508060040160009054906101000a900460ff1615801561056e57508060040160019054906101000a900460ff16155b801561057e575080600301544210155b6105bd576040517f08c379a00000000000000000000000000000000000000000000000000000000081526004016105b49061165c565b60405180910390fd5b6105c682610dd9565b50505050565b60008073ffffffffffffffffffffffffffffffffffffffff168473ffffffffffffffffffffffffffffffffffffffff160361063c576040517f08c379a0000000000000000000000000000000000000000000000000000000008152600401610633906116c8565b60405180910390fd5b6000831161067f576040517f08c379a000000000000000000000000000000000000000000000000000000000815260040161067690611734565b60405180910390fd5b600082116106c2576040517f08c379a00000000000000000000000000000000000000000000000000000000081526004016106b9906117a0565b60405180910390fd5b60008054906101000a900473ffffffffffffffffffffffffffffffffffffffff1673ffffffffffffffffffffffffffffffffffffffff166323b872dd3330866040518463ffffffff1660e01b815260040161071f939291906117c0565b6020604051808303816000875af115801561073e573d6000803e3d6000fd5b505050506040513d601f19601f8201168201806040525081019061076291906115e3565b506001600081548092919061077690611826565b919050555060008242610789919061186e565b90506040518060c001604052803373ffffffffffffffffffffffffffffffffffffffff1681526020018673ffffffffffffffffffffffffffffffffffffffff1681526020018581526020018281526020016000151581526020016000151581525060026000600154815260200190815260200160002060008201518160000160006101000a81548173ffffffffffffffffffffffffffffffffffffffff021916908373ffffffffffffffffffffffffffffffffffffffff16021790555060208201518160010160006101000a81548173ffffffffffffffffffffffffffffffffffffffff021916908373ffffffffffffffffffffffffffffffffffffffff160217905550604082015181600201556060820151816003015560808201518160040160006101000a81548160ff02191690831515021790555060a08201518160040160016101000a81548160ff0219169083151502179055509050508473ffffffffffffffffffffffffffffffffffffffff163373ffffffffffffffffffffffffffffffffffffffff166001547f9a663fabe00ae5988f58f3fcb0b4585601099a88f34ca1f3a6d31d3d1ce2140387856040516109469291906118a2565b60405180910390a46001549150509392505050565b600060606000600190505b6001548111610a0a5760006002600083815260200190815260200160002090508060040160009054906101000a900460ff161580156109b457508060040160019054906101000a900460ff16155b80156109c4575080600301544210155b156109f6576001826040516020016109dc9190611293565b604051602081830303815290604052935093505050610a22565b508080610a0290611826565b915050610966565b50600060405180602001604052806000815250915091505b9250929050565b60015481565b60008060008060008060006002600089815260200190815260200160002090508060000160009054906101000a900473ffffffffffffffffffffffffffffffffffffffff168160010160009054906101000a900473ffffffffffffffffffffffffffffffffffffffff16826002015483600301548460040160009054906101000a900460ff168560040160019054906101000a900460ff169650965096509650965096505091939550919395565b60026020528060005260406000206000915090508060000160009054906101000a900473ffffffffffffffffffffffffffffffffffffffff16908060010160009054906101000a900473ffffffffffffffffffffffffffffffffffffffff16908060020154908060030154908060040160009054906101000a900460ff16908060040160019054906101000a900460ff16905086565b60008060026000848152602001908152602001600020905080600301544210610ba0576000915050610bb4565b428160030154610bb091906118cb565b9150505b919050565b60006002600084815260200190815260200160002090508060000160009054906101000a900473ffffffffffffffffffffffffffffffffffffffff1673ffffffffffffffffffffffffffffffffffffffff163373ffffffffffffffffffffffffffffffffffffffff1614610c62576040517f08c379a0000000000000000000000000000000000000000000000000000000008152600401610c5990611496565b60405180910390fd5b8060040160009054906101000a900460ff1615610cb4576040517f08c379a0000000000000000000000000000000000000000000000000000000008152600401610cab90611502565b60405180910390fd5b8060040160019054906101000a900460ff1615610d06576040517f08c379a0000000000000000000000000000000000000000000000000000000008152600401610cfd9061194b565b60405180910390fd5b60008211610d49576040517f08c379a0000000000000000000000000000000000000000000000000000000008152600401610d40906117a0565b60405180910390fd5b8142610d55919061186e565b81600301819055508060000160009054906101000a900473ffffffffffffffffffffffffffffffffffffffff1673ffffffffffffffffffffffffffffffffffffffff16837f3fd56a141c7bca393ccfa4d04d45222f3f329deeb0cb7ac2103dc475db7b6f198360030154604051610dcc9190611293565b60405180910390a3505050565b60006002600083815260200190815260200160002090508060040160009054906101000a900460ff1615610e42576040517f08c379a0000000000000000000000000000000000000000000000000000000008152600401610e3990611502565b60405180910390fd5b8060040160019054906101000a900460ff1615610e94576040517f08c379a0000000000000000000000000000000000000000000000000000000008152600401610e8b9061194b565b60405180910390fd5b8060030154421015610edb576040517f08c379a0000000000000000000000000000000000000000000000000000000008152600401610ed2906119b7565b60405180910390fd5b60018160040160006101000a81548160ff02191690831515021790555060008054906101000a900473ffffffffffffffffffffffffffffffffffffffff1673ffffffffffffffffffffffffffffffffffffffff1663a9059cbb8260010160009054906101000a900473ffffffffffffffffffffffffffffffffffffffff1683600201546040518363ffffffff1660e01b8152600401610f7b92919061158e565b6020604051808303816000875af1158015610f9a573d6000803e3d6000fd5b505050506040513d601f19601f82011682018060405250810190610fbe91906115e3565b508060010160009054906101000a900473ffffffffffffffffffffffffffffffffffffffff1673ffffffffffffffffffffffffffffffffffffffff16827f12c8907d32b752d626a36cf18f31719e25f1a3b6f750ee948c22c036373d48aa836002015460405161102e9190611293565b60405180910390a35050565b600073ffffffffffffffffffffffffffffffffffffffff82169050919050565b6000819050919050565b600061107f61107a6110758461103a565b61105a565b61103a565b9050919050565b600061109182611064565b9050919050565b60006110a382611086565b9050919050565b6110b381611098565b82525050565b60006020820190506110ce60008301846110aa565b92915050565b600080fd5b600080fd5b6000819050919050565b6110f1816110de565b81146110fc57600080fd5b50565b60008135905061110e816110e8565b92915050565b60006020828403121561112a576111296110d4565b5b6000611138848285016110ff565b91505092915050565b600080fd5b600080fd5b600080fd5b60008083601f84011261116657611165611141565b5b8235905067ffffffffffffffff81111561118357611182611146565b5b60208301915083600182028301111561119f5761119e61114b565b5b9250929050565b600080602083850312156111bd576111bc6110d4565b5b600083013567ffffffffffffffff8111156111db576111da6110d9565b5b6111e785828601611150565b92509250509250929050565b60006111fe8261103a565b9050919050565b61120e816111f3565b811461121957600080fd5b50565b60008135905061122b81611205565b92915050565b60008060006060848603121561124a576112496110d4565b5b60006112588682870161121c565b9350506020611269868287016110ff565b925050604061127a868287016110ff565b9150509250925092565b61128d816110de565b82525050565b60006020820190506112a86000830184611284565b92915050565b60008115159050919050565b6112c3816112ae565b82525050565b600081519050919050565b600082825260208201905092915050565b60005b838110156113035780820151818401526020810190506112e8565b60008484015250505050565b6000601f19601f8301169050919050565b600061132b826112c9565b61133581856112d4565b93506113458185602086016112e5565b61134e8161130f565b840191505092915050565b600060408201905061136e60008301856112ba565b81810360208301526113808184611320565b90509392505050565b611392816111f3565b82525050565b600060c0820190506113ad6000830189611389565b6113ba6020830188611389565b6113c76040830187611284565b6113d46060830186611284565b6113e160808301856112ba565b6113ee60a08301846112ba565b979650505050505050565b600080604083850312156114105761140f6110d4565b5b600061141e858286016110ff565b925050602061142f858286016110ff565b9150509250929050565b600082825260208201905092915050565b7f4e6f74206f776e65720000000000000000000000000000000000000000000000600082015250565b6000611480600983611439565b915061148b8261144a565b602082019050919050565b600060208201905081810360008301526114af81611473565b9050919050565b7f416c726561647920657865637574656400000000000000000000000000000000600082015250565b60006114ec601083611439565b91506114f7826114b6565b602082019050919050565b6000602082019050818103600083015261151b816114df565b9050919050565b7f416c72656164792063616e63656c6c6564000000000000000000000000000000600082015250565b6000611558601183611439565b915061156382611522565b602082019050919050565b600060208201905081810360008301526115878161154b565b9050919050565b60006040820190506115a36000830185611389565b6115b06020830184611284565b9392505050565b6115c0816112ae565b81146115cb57600080fd5b50565b6000815190506115dd816115b7565b92915050565b6000602082840312156115f9576115f86110d4565b5b6000611607848285016115ce565b91505092915050565b7f4e6f742072656164790000000000000000000000000000000000000000000000600082015250565b6000611646600983611439565b915061165182611610565b602082019050919050565b6000602082019050818103600083015261167581611639565b9050919050565b7f496e76616c6964206261636b7570000000000000000000000000000000000000600082015250565b60006116b2600e83611439565b91506116bd8261167c565b602082019050919050565b600060208201905081810360008301526116e1816116a5565b9050919050565b7f416d6f756e74206d7573742062652067726561746572207468616e2030000000600082015250565b600061171e601d83611439565b9150611729826116e8565b602082019050919050565b6000602082019050818103600083015261174d81611711565b9050919050565b7f54696d6572207265717569726564000000000000000000000000000000000000600082015250565b600061178a600e83611439565b915061179582611754565b602082019050919050565b600060208201905081810360008301526117b98161177d565b9050919050565b60006060820190506117d56000830186611389565b6117e26020830185611389565b6117ef6040830184611284565b949350505050565b7f4e487b7100000000000000000000000000000000000000000000000000000000600052601160045260246000fd5b6000611831826110de565b91507fffffffffffffffffffffffffffffffffffffffffffffffffffffffffffffffff8203611863576118626117f7565b5b600182019050919050565b6000611879826110de565b9150611884836110de565b925082820190508082111561189c5761189b6117f7565b5b92915050565b60006040820190506118b76000830185611284565b6118c46020830184611284565b9392505050565b60006118d6826110de565b91506118e1836110de565b92508282039050818111156118f9576118f86117f7565b5b92915050565b7f43616e63656c6c65640000000000000000000000000000000000000000000000600082015250565b6000611935600983611439565b9150611940826118ff565b602082019050919050565b6000602082019050818103600083015261196481611928565b9050919050565b7f546f6f206561726c790000000000000000000000000000000000000000000000600082015250565b60006119a1600983611439565b91506119ac8261196b565b602082019050919050565b600060208201905081810360008301526119d081611994565b905091905056fea26469706673582212205bdd07c533bdfcef664fe9e7e29c7c913436f453cdf09ae43d3d338404e4499264736f6c63430008130033",
  "linkReferences": {},
  "deployedLinkReferences": {}
}